:020000040000FA
:100000000C9462000C948A000C948A000C948A0070
:100010000C948A000C948A000C948A000C948A0038
:100020000C948A000C948A000C948A000C948A0028
:100030000C948A000C948A000C948A000C948A0018
:100040000C940F020C948A000C947F020C945902B9
:100050000C948A000C948A000C948A000C948A00F8
:100060000C948A000C948A000000000025002800EF
:100070002B0000000000240027002A0000000000E0
:1000800023002600290004040404040404040202DA
:100090000202020203030303030301020408102007
:1000A0004080010204081020010204081020000012
:1000B0000008000201000003040700000000000027
:1000C0000000EA0411241FBECFEFD8E0DEBFCDBF91
:1000D00011E0A0E0B1E0EAEFFEE002C005900D9271
:1000E000A233B107D9F721E0A2E3B1E001C01D922C
:1000F000A03FB207E1F710E0C2E6D0E004C02197CC
:10010000FE010E947507C136D107C9F70E94B102EE
:100110000C947B070C9400003FB7F89480914F013A
:1001200090915001A0915101B091520126B5A89B28
:1001300005C02F3F19F00196A11DB11D3FBFBA2F79
:10014000A92F982F8827BC01CD01620F711D811D39
:10015000911D42E0660F771F881F991F4A95D1F7BE
:100160000895AF92BF92CF92DF92EF92FF920F93DA
:100170001F93CF93DF936C017B018B01040F151F3D
:10018000EB015E01AE18BF08C017D10759F06991A5
:10019000D601ED91FC910190F081E02DC601099509
:1001A000892B79F7C501DF91CF911F910F91FF90B6
:1001B000EF90DF90CF90BF90AF900895FC01538DEA
:1001C000448D252F30E0842F90E0821B930B541731
:1001D00010F0CF96089501970895FC01918D828DBE
:1001E000981761F0A28DAE0FBF2FB11D5D968C9157
:1001F000928D9F5F9F73928F90E008958FEF9FEF96
:100200000895FC01918D828D981731F0828DE80F51
:10021000F11D858D90E008958FEF9FEF0895FC010B
:10022000918D228D892F90E0805C9F4F821B9109D8
:100230008F739927089583E591E00E940F0121E0D3
:10024000892B09F420E0822F089580E090E0892B2B
:1002500029F00E941B0181110C9400000895FC01FB
:10026000A48DA80FB92FB11DA35ABF4F2C91848D17
:1002700090E001968F739927848FA689B7892C9374
:10028000A089B1898C91837080648C93938D848DC7
:10029000981306C00288F389E02D80818F7D8083CA
:1002A0000895EF92FF920F931F93CF93DF93EC018A
:1002B00081E0888F9B8D8C8D98131AC0E889F9890D
:1002C000808185FF15C09FB7F894EE89FF89608310
:1002D000E889F98980818370806480839FBF81E091
:1002E00090E0DF91CF911F910F91FF90EF900895D3
:1002F000F62E0B8D10E00F5F1F4F0F731127E02EAE
:100300008C8D8E110CC00FB607FCFACFE889F989E5
:10031000808185FFF5CFCE010E942F01F1CFEB8DBB
:10032000EC0FFD2FF11DE35AFF4FF0829FB7F894B9
:100330000B8FEA89FB8980818062CFCFCF93DF93D7
:10034000EC01888D8823B9F0AA89BB89E889F989ED
:100350008C9185FD03C0808186FD0DC00FB607FC22
:10036000F7CF8C9185FFF2CF808185FFEDCFCE0155
:100370000E942F01E9CFDF91CF910895FC010190F8
:100380000020E9F73197AF01481B590BBC0183E509
:1003900091E00C94B1008F929F92AF92BF920F9315
:1003A0001F93CF93DF93CDB7DEB7A1970FB6F89425
:1003B000DEBF0FBECDBF19A2423008F44AE08E0165
:1003C0000F5D1F4F842E912CB12CA12CA5019401FF
:1003D0000E945307E62FB901CA01EA30F4F4E05D48
:1003E000D801EE938D01232B242B252B79F790E058
:1003F00080E0109719F0CD010E94BE01A1960FB6C2
:10040000F894DEBF0FBECDBFDF91CF911F910F914A
:10041000BF90AF909F908F900895E95CE1CF1F92BD
:100420000F920FB60F9211242F933F938F939F93A8
:10043000AF93BF9380914B0190914C01A0914D01DE
:10044000B0914E0130914A0123E0230F2D3758F52A
:100450000196A11DB11D20934A0180934B019093F9
:100460004C01A0934D01B0934E0180914F019091AA
:100470005001A0915101B09152010196A11DB11DF1
:1004800080934F0190935001A0935101B09352017A
:10049000BF91AF919F918F913F912F910F900FBE80
:1004A0000F901F90189526E8230F0296A11DB11DED
:1004B000D2CF1F920F920FB60F9211242F933F931A
:1004C0004F935F936F937F938F939F93AF93BF935C
:1004D000EF93FF9383E591E00E942F01FF91EF914D
:1004E000BF91AF919F918F917F916F915F914F914C
:1004F0003F912F910F900FBE0F901F9018951F9254
:100500000F920FB60F9211242F938F939F93EF9317
:10051000FF93E0916301F09164018081E0916901B2
:10052000F0916A0182FD1BC0908180916C018F5F08
:100530008F7320916D01821741F0E0916C01F0E022
:10054000ED5AFE4F958F80936C01FF91EF919F9133
:100550008F912F910F900FBE0F901F901895808153
:10056000F4CF789484B5826084BD84B5816084BD05
:1005700085B5826085BD85B5816085BD80916E0041
:10058000816080936E001092810080918100826072
:1005900080938100809181008160809381008091AF
:1005A00080008160809380008091B100846080939E
:1005B000B1008091B00081608093B00080917A009A
:1005C000846080937A0080917A00826080937A00C0
:1005D00080917A00816080937A0080917A008068AF
:1005E00080937A001092C1004DE9242E40E0342E11
:1005F000F1012491E9E8F0E084918823C1F090E0D2
:10060000880F991FFC01EE58FF4FA591B491FC0192
:10061000E859FF4FC591D4913FB7F8949C91822F30
:10062000809598239C939881892388833FBFE0918C
:100630006301F091640182E08083E0915F01F091B9
:1006400060011082E0916101F09162018FEC808382
:1006500010926B01E0916701F091680186E0808360
:10066000E0916501F0916601808180618083E09175
:100670006501F0916601808188608083E091650169
:10068000F0916601808180688083E0916501F0913E
:10069000660180818F7D808382E191E00E94BE01AE
:1006A00088E191E00E94BE0106E411E0C0E0D0E0E4
:1006B000E1EBF0E08491F1019491E9E8F0E024911C
:1006C000222309F4C6C0882359F0833009F4D7C027
:1006D00008F0CAC0813009F4D8C0823009F4D9C00A
:1006E000E22FF0E0EE0FFF1FE458FF4FA591B49109
:1006F0008C91982309F4ADC096E3E92E91E0F92E90
:10070000F0E4F0937C0080917A00806480937A001A
:1007100080917A0086FDFCCF8091780090917900DD
:10072000F701819391937F010E948C002B013C0182
:100730008AE0882E912CA12CB12C0E948C00641987
:10074000750986099709683E734081059105A8F3EC
:10075000F1E08F1A9108A108B10828EE420E23E0BB
:10076000521E611C711C81149104A104B10429F76B
:10077000FAE4EF16F1E0FF0619F6E6E3F1E0DF0137
:100780008081918112962D913C91139728173907FA
:1007900034F43183208313969C938E931297129690
:1007A00088E491E08A179B0759F7329621E0E834F4
:1007B000F20729F7EAE3F1E081919191092E000C0B
:1007C000AA0BBB0B880E991EAA1EBB1E0E171F0775
:1007D00099F78092320190923301A0923401B09245
:1007E0003501C501B4010E942A0620E030E040EA4C
:1007F00050E40E94E10620E030E040E85AE30E9425
:10080000E10620E030E040EC50E40E94890520E061
:1008100030E040E650E40E94E1066B017C014B01B0
:100820005C018BE191E00E94BE01A7019601C70126
:10083000B6010E944E078823C9F183E291E00E942D
:10084000BE018FE291E00E94BE0188E191E00E942A
:10085000BE01209709F42CCF0E941B01882309F4C4
:1008600027CF0E94000024CF8730B1F08830D1F02C
:10087000843009F035CF809180008F7D03C0809156
:1008800080008F77809380002BCF84B58F7784BDD5
:1008900027CF84B58F7DFBCF8091B0008F77809379
:1008A000B0001ECF8091B0008F7DF9CF26013701B7
:1008B000E89477F82FEF3FEF4FE75FE7C301B2010E
:1008C0000E944E0781110DC02FEF3FEF4FE75FE70A
:1008D000C301B2010E94840518161CF487E291E05E
:1008E000AECF2FEF3FEF4FE75FE4C701B6010E94A5
:1008F000DC0618161CF48BE291E0A1CF2FEF3FEF3E
:100900004FE75FECC701B6010E94840587FDF3CF76
:1009100020E030E0A901C701B6010E94840587FFED
:100920000BC06DE283E591E00E9451014601570141
:10093000B7FAB094B7F8B0942AE037ED43EA5BE336
:10094000C501B4010E9418054B015C010E94FB0522
:100950006B017C010E942A069B01AC01C501B40118
:100960000E9417054B015C014AE0C701B6010E94D5
:10097000CB016EE283E591E00E94510120E030E07E
:1009800040E251E4C501B4010E94E1064B015C0163
:100990000E94FB056B01F12CE12C4AE0C701B60176
:1009A0000E94CB01C701B6010E942A069B01AC013F
:1009B000C501B4010E94170520E030E040E251E497
:1009C0000E94E1060E94FB0590E080E04AE00E9460
:1009D000CB0137CFE3E5F1E01382128288EE93E09A
:1009E000A0E0B0E084839583A683B78384E091E0A0
:1009F0009183808385EC90E09587848784EC90E0F8
:100A00009787868780EC90E0918B808B81EC90E0DB
:100A1000938B828B82EC90E0958B848B86EC90E0BC
:100A2000978B868B118E128E138E148E08955058CC
:100A3000BB27AA270E942F050C94A2060E949406A9
:100A400038F00E949B0620F039F49F3F19F426F4F9
:100A50000C9491060EF4E095E7FB0C948B06E92FBD
:100A60000E94B30658F3BA17620773078407950705
:100A700020F079F4A6F50C94D5060EF4E0950B2E33
:100A8000BA2FA02D0B01B90190010C01CA01A001E0
:100A90001124FF27591B99F0593F50F4503E68F13B
:100AA0001A16F040A22F232F342F4427585FF3CF7C
:100AB000469537952795A795F0405395C9F77EF44D
:100AC0001F16BA0B620B730B840BBAF09150A1F096
:100AD000FF0FBB1F661F771F881FC2F70EC0BA0F1C
:100AE000621F731F841F48F4879577956795B795A4
:100AF000F7959E3F08F0B0CF9395880F08F099279F
:100B0000EE0F9795879508950E94670608F481E097
:100B100008950E949D050C94A2060E949B0658F021
:100B20000E94940640F029F45F3F29F00C948B0654
:100B300051110C94D6060C9491060E94B30668F3EA
:100B40009923B1F3552391F3951B550BBB27AA2786
:100B500062177307840738F09F5F5F4F220F331FC0
:100B6000441FAA1FA9F335D00E2E3AF0E0E832D088
:100B700091505040E695001CCAF72BD0FE2F29D08B
:100B8000660F771F881FBB1F261737074807AB075D
:100B9000B0E809F0BB0B802DBF01FF2793585F4FD2
:100BA0003AF09E3F510578F00C948B060C94D606D3
:100BB0005F3FE4F3983ED4F3869577956795B795B4
:100BC000F7959F5FC9F7880F911D9695879597F9BF
:100BD0000895E1E0660F771F881FBB1F6217730738
:100BE0008407BA0720F0621B730B840BBA0BEE1F4D
:100BF00088F7E09508950E94BB0688F09F5798F00B
:100C0000B92F9927B751B0F0E1F0660F771F881F11
:100C1000991F1AF0BA95C9F714C0B13091F00E942B
:100C2000D506B1E008950C94D506672F782F882754
:100C3000B85F39F0B93FCCF3869577956795B39552
:100C4000D9F73EF490958095709561957F4F8F4FC1
:100C50009F4F0895E89409C097FB3EF490958095C6
:100C6000709561957F4F8F4F9F4F9923A9F0F92F72
:100C700096E9BB279395F695879577956795B795F0
:100C8000F111F8CFFAF4BB0F11F460FF1BC06F5FD6
:100C90007F4F8F4F9F4F16C0882311F096E911C0E8
:100CA000772321F09EE8872F762F05C0662371F009
:100CB00096E8862F70E060E02AF09A95660F771F1D
:100CC000881FDAF7880F9695879597F90895990FF9
:100CD0000008550FAA0BE0E8FEEF16161706E80706
:100CE000F907C0F012161306E407F50798F0621B27
:100CF000730B840B950B39F40A2661F0232B242BFC
:100D0000252B21F408950A2609F4A140A6958FEF1A
:100D1000811D811D089597F99F6780E870E060E06C
:100D200008959FEF80EC089500240A941616170684
:100D300018060906089500240A94121613061406CC
:100D400005060895092E0394000C11F4882352F02F
:100D5000BB0F40F4BF2B11F460FF04C06F5F7F4FE7
:100D60008F4F9F4F089557FD9058440F551F59F0CE
:100D70005F3F71F04795880F97FB991F61F09F3F88
:100D800079F087950895121613061406551FF2CFB1
:100D90004695F1DF08C0161617061806991FF1CF01
:100DA00086957105610508940895E894BB27662728
:100DB0007727CB0197F908950E94670608F48FEF13
:100DC00008950E94F4060C94A2060E94940638F03E
:100DD0000E949B0620F0952311F00C948B060C9436
:100DE000910611240C94D6060E94B30670F3959FC9
:100DF000C1F3950F50E0551F629FF001729FBB2712
:100E0000F00DB11D639FAA27F00DB11DAA1F649FAD
:100E10006627B00DA11D661F829F2227B00DA11D60
:100E2000621F739FB00DA11D621F839FA00D611DE6
:100E3000221F749F3327A00D611D231F849F600D07
:100E4000211D822F762F6A2F11249F5750409AF030
:100E5000F1F088234AF0EE0FFF1FBB1F661F771FBC
:100E6000881F91505040A9F79E3F510580F00C9487
:100E70008B060C94D6065F3FE4F3983ED4F3869538
:100E800077956795B795F795E7959F5FC1F7FE2B27
:100E9000880F911D9695879597F908950E9467068A
:100EA000880B990B0895A1E21A2EAA1BBB1BFD010A
:100EB0000DC0AA1FBB1FEE1FFF1FA217B307E40739
:100EC000F50720F0A21BB30BE40BF50B661F771F91
:100ED000881F991F1A9469F7609570958095909571
:100EE0009B01AC01BD01CF010895EE0FFF1F0590DE
:100EF000F491E02D0994F894FFCF00000000510117
:100F0000B100DE009E010F01ED0001015265616438
:100F100079000D0A002020202070483A006E616E92
:0C0F200000696E66006F7666002000001D
:107E0000112484B714BE81FFF0D085E080938100F7
:107E100082E08093C00088E18093C10086E0809377
:107E2000C20080E18093C4008EE0C9D0259A86E02C
:107E300020E33CEF91E0309385002093840096BBD3
:107E4000B09BFECF1D9AA8958150A9F7CC24DD24C4
:107E500088248394B5E0AB2EA1E19A2EF3E0BF2EE7
:107E6000A2D0813461F49FD0082FAFD0023811F036
:107E7000013811F484E001C083E08DD089C08234E0
:107E800011F484E103C0853419F485E0A6D080C0E4
:107E9000853579F488D0E82EFF2485D0082F10E0AE
:107EA000102F00270E291F29000F111F8ED06801E7
:107EB0006FC0863521F484E090D080E0DECF843638
:107EC00009F040C070D06FD0082F6DD080E0C81688
:107ED00080E7D80618F4F601B7BEE895C0E0D1E017
:107EE00062D089930C17E1F7F0E0CF16F0E7DF06D8
:107EF00018F0F601B7BEE89568D007B600FCFDCFD4
:107F0000A601A0E0B1E02C9130E011968C91119780
:107F100090E0982F8827822B932B1296FA010C0160
:107F200087BEE89511244E5F5F4FF1E0A038BF0790
:107F300051F7F601A7BEE89507B600FCFDCF97BE46
:107F4000E89526C08437B1F42ED02DD0F82E2BD052
:107F50003CD0F601EF2C8F010F5F1F4F84911BD097
:107F6000EA94F801C1F70894C11CD11CFA94CF0C13
:107F7000D11C0EC0853739F428D08EE10CD085E9AC
:107F80000AD08FE07ACF813511F488E018D01DD067
:107F900080E101D065CF982F8091C00085FFFCCF94
:107FA0009093C60008958091C00087FFFCCF809118
:107FB000C00084FD01C0A8958091C6000895E0E648
:107FC000F0E098E1908380830895EDDF803219F02E
:107FD00088E0F5DFFFCF84E1DECF1F93182FE3DFCA
:107FE0001150E9F7F2DF1F91089580E0E8DFEE27F6
:047FF000FF270994CA
:027FFE00040479
:00000001FF
